:100000000C942A000C9447000C9447000C94470071
:100010000C9447000C9447000C9447000C94470044
:100020000C9447000C9447000C943C050C9447003A
:100030000C9447000C9447000C9447000C94470024
:100040000C9447000C9447000C9447000C94470014
:100050000C94470011241FBECFE5D8E0DEBFCDBF12
:1000600010E0A0E6B0E0EEE2FBE002C005900D92E9
:10007000A836B107D9F720E0A8E6B0E001C01D928C
:10008000AF36B207E1F70E9449000C9495050C9435
:100090000000CF93DF93CDB7DEB727970FB6F89464
:1000A000DEBF0FBECDBF80916000909161000E94C5
:1000B0009B000E947101198286E0E2E6F0E0DE0119
:1000C000129601900D928A95E1F765E080E00E941A
:1000D000E202CE0102960E944F0288EE93E00E9457
:1000E000160510E0BE016F5F7F4F80916000909118
:1000F00061000E94A3008981882359F01F5F09C015
:10010000BE016F5F7F4F80916000909161000E94FF
:10011000A30089818111F4CF0E94F80260E080E0A1
:100120000E94E202812F90E00E94680284E690E043
:100130000E941605D7CF40E0692F0E94FE0384314C
:1001400009F481E20895BF92CF92DF92EF92FF927D
:100150000F931F93CF93DF931F92CDB7DEB7611537
:10016000710551F16B01692FF92EE82EAE014F5F39
:100170005F4F0E947804B82E86E1B81611F110E0A6
:1001800000E0AE014F5F5F4F6F2D8E2D0E9478040F
:100190008981813021F40F5F898310E005C08111CE
:1001A00003C01F5F198200E0053011F0153049F7D8
:1001B0008981F601808309C00F2EF2E2BF2EF02D57
:1001C00004C00F2EF2E2BF2EF02D8B2D0F90DF9189
:1001D000CF911F910F91FF90EF90DF90CF90BF9044
:1001E0000895CF93DF93C82F84FBDD27D0F940E03B
:1001F00061E080E00E94FE03811104C040E062E003
:100200000E94FE03811104C04D2F64E00E94FE0392
:10021000811106C0C5FB442740F965E00E94FE033A
:10022000811106C0C6FB442740F966E00E94FE0328
:10023000811107C04C2F441F4427441F67E00E94D0
:10024000FE03811104C041E063E00E94FE038111BE
:1002500009C08AE090E00E94160540E063E080E07B
:100260000E94FE03811104C040E061E00E94FE0391
:10027000811104C040E062E00E94FE03811105C0CC
:100280004C2F417064E00E94FE03811106C0C1FB47
:10029000442740F965E00E94FE03811106C0C2FBBD
:1002A000442740F966E00E94FE03811106C0C3FBAB
:1002B000442740F967E00E94FE03811104C041E039
:1002C00063E00E94FE03811109C08AE090E00E9471
:1002D000160540E063E080E00E94FE03DF91CF91CD
:1002E0000895CF9381E00E94F100811102C0C0E027
:1002F00001C0C1E784E690E00E9416058111C1E7C4
:1003000041E061E080E00E9408038111C1E741E023
:1003100062E080E00E9408038111C1E741E063E0F0
:1003200080E00E9408038111C1E741E064E080E0C1
:100330000E9408038111C1E741E065E080E00E946E
:1003400008038111C1E741E066E080E00E940803F4
:100350008111C1E741E067E080E00E94080381115C
:10036000C1E782E30E94F1008111C1E783E30E94AB
:10037000F1008111C1E788E20E94F1008111C1E71B
:100380008CE00E94F1008111C1E786E00E94F1003B
:100390008111C1E781E00E94F1008111C1E78C2F3A
:1003A000CF910895CF93C82F41E061E080E00E9493
:1003B000FE03811104C040E062E00E94FE0381114F
:1003C00006C0C4FB442740F964E00E94FE0381118B
:1003D00006C0C5FB442740F965E00E94FE03811179
:1003E00006C0C6FB442740F966E00E94FE03811167
:1003F00007C04C2F441F4427441F67E00E94FE03A0
:10040000811104C041E063E00E94FE03811109C034
:100410008AE090E00E94160540E063E080E00E94E0
:10042000FE03811104C041E061E00E94FE038111DE
:1004300004C040E062E00E94FE03811105C04C2F21
:10044000417064E00E94FE03811106C0C1FB442795
:1004500040F965E00E94FE03811106C0C2FB4427FB
:1004600040F966E00E94FE03811106C0C3FB4427E9
:1004700040F967E00E94FE03811104C041E063E09F
:100480000E94FE03811109C08AE090E00E941605D7
:1004900040E063E080E00E94FE03CF910895CF9397
:1004A000DF93EC01892B81F080E008C0892F0E9446
:1004B000D20182E090E00E9416052196988199234E
:1004C00021F0882399F301C085E7DF91CF9108954A
:1004D0001F93CF93DF93AC01892BC1F580E30E947A
:1004E000D201811169C010E068C0CE01880F991F48
:1004F000CC0FDD1FCC0FDD1FCC0FDD1FC80FD91FA8
:100500009A01ADECBCEC0E94860596958795969570
:100510008795969587959C01220F331F880F991F09
:10052000880F991F880F991F820F931F9A01281B0C
:10053000390BC20FD31F9A010E948605AC01569554
:100540004795569547955695479502C0C1E0D0E02E
:100550004115510551F610E02BC09E01ADECBCECED
:100560000E94860596958795969587959695879589
:100570009C01220F331F880F991F880F991F880F26
:10058000991F820F931F9E01281B390BC901805DA3
:100590000E94D201811114E79E01ADECBCEC0E94D7
:1005A0008605EC01D695C795D695C795D695C7957E
:1005B000C230D10590F601C014E7812FDF91CF91B1
:1005C0001F910895603158F4882319F0813021F08B
:1005D00008C0606880E006C0606C80E003C086E709
:1005E00001C086E7811103C0862F0E94F1000895A3
:1005F00081E00E94F100811107C085E090E00E9437
:100600001605811103C0089587E7089587E70895C7
:10061000683008F0E7C0813009F43FC038F082301C
:1006200009F472C0833009F4A6C0DEC0413049F13C
:1006300018F0423091F0DAC02AB381E090E002C0B5
:10064000880F991F6A95E2F78095922F98239ABB9D
:100650009BB389238BBB80E0089580B78B7F80BFDD
:100660002AB381E090E002C0880F991F6A95E2F7F3
:10067000982F909592239ABB9BB3892B8BBB80E0DC
:1006800008952AB381E090E002C0880F991F6A950F
:10069000E2F7822B8ABB80E00895413049F118F0DF
:1006A000423091F0A5C027B381E090E002C0880FEE
:1006B000991F6A95E2F78095922F982397BB98B37C
:1006C000892388BB80E0089580B78B7F80BF27B3E4
:1006D00081E090E002C0880F991F6A95E2F7982F99
:1006E0009095922397BB98B3892B88BB80E008959F
:1006F00027B381E090E002C0880F991F6A95E2F766
:10070000822B87BB80E00895413049F118F04230D8
:1007100091F070C024B381E090E002C0880F991F6F
:100720006A95E2F78095922F982394BB95B389231D
:1007300085BB80E0089580B78B7F80BF24B381E0C4
:1007400090E002C0880F991F6A95E2F7982F909564
:10075000922394BB95B3892B85BB80E0089524B385
:1007600081E090E002C0880F991F6A95E2F7822B22
:1007700084BB80E00895413049F118F0423091F097
:100780003BC021B381E090E002C0880F991F6A95B9
:10079000E2F78095922F982391BB9BB389238BBB63
:1007A00080E0089580B78B7F80BF21B381E090E027
:1007B00002C0880F991F6A95E2F7982F90959223AF
:1007C00091BB92B3892B82BB80E0089521B381E075
:1007D00090E002C0880F991F6A95E2F7822B81BBD7
:1007E00080E0089582E1089582E1089582E108950C
:1007F00082E1089582E1089582E10895683008F069
:100800006BC0813001F130F08230B1F1833009F4F6
:100810004BC064C0423008F063C05BB321E030E0FD
:10082000062E02C0220F331F0A94E2F7842F90E0B5
:1008300002C0880F991F6A95E2F720952523822B25
:100840008BBB80E00895423008F04CC058B321E0E3
:1008500030E0062E02C0220F331F0A94E2F7842FE5
:1008600090E002C0880F991F6A95E2F72095252332
:10087000822B88BB80E008954230B0F555B321E06B
:1008800030E0062E02C0220F331F0A94E2F7842FB5
:1008900090E002C0880F991F6A95E2F72095252302
:1008A000822B85BB80E00895423000F552B321E0F1
:1008B00030E0062E02C0220F331F0A94E2F7842F85
:1008C00090E002C0880F991F6A95E2F720952523D2
:1008D000822B82BB80E0089584E1089584E108952D
:1008E00084E1089584E1089584E1089584E1089500
:1008F0006830C0F5813091F028F08230D9F0833033
:1009000029F132C089B390E002C0959587956A9528
:10091000E2F78170FA01808380E0089586B390E069
:1009200002C0959587956A95E2F78170FA018083F8
:1009300080E0089583B390E002C0959587956A950D
:10094000E2F78170FA01808380E0089580B390E03F
:1009500002C0959587956A95E2F78170FA018083C8
:1009600080E0089586E1089586E1089583B78F7B3E
:1009700083BF83B7886083BF8FB780688FBF89B715
:10098000826089BF03B606FC0BC003B603FE0AC033
:100990000FB607FE09C009B601FC08C081E408953E
:1009A00081E4089581E4089581E4089580E0089544
:1009B0008DE78CBF83B7816083BF83B7826083BFBD
:1009C00083B78B7F83BF03B600FE08C003B601FE6A
:1009D00007C003B602FE06C082E4089582E40895CB
:1009E00082E4089580E0089583B78E7F83BF83B744
:1009F0008D7F83BF83B78B7F83BF89B78D7F89BF8F
:100A000003B600FC0BC003B601FC0AC003B602FC2F
:100A100009C009B601FE08C082E4089582E4089581
:100A200082E4089582E4089580E0089520916A00A8
:100A3000213001F121E020936A0010926C001092A5
:100A40006B0090936E0080936D000E94B6040E942C
:100A5000D80420916B0030916C0080916D009091D2
:100A60006E0082179307A8F70E94F40410926A00A0
:100A700080E0089585E408951F920F920FB60F92BB
:100A800011242F933F934F935F936F937F938F9393
:100A90009F93AF93BF93EF93FF9380916B009091DF
:100AA0006C00019690936C0080936B0020916B001A
:100AB00030916C0080916D0090916E00281739077D
:100AC000A1F48091680090916900892B71F01092D7
:100AD0006C0010926B0089B78D7F89BF10926A00FD
:100AE000E0916800F09169000995FF91EF91BF9145
:100AF000AF919F918F917F916F915F914F913F91B6
:100B00002F910F900FBE0F901F901895A29FB001CC
:100B1000B39FC001A39F700D811D1124911DB29F31
:0E0B2000700D811D1124911D0895F894FFCFD2
:080B2E00010248656C6C6F00C8
:00000001FF
